:100000000C9434000C9451000C9451000C94510049
:100010000C9451000C9451000C9451000C9451001C
:100020000C9451000C9451000C9451000C9451000C
:100030000C9451000C9451000C9451000C945100FC
:100040000C9451000C9451000C9451000C945100EC
:100050000C9451000C9451000C9451000C945100DC
:100060000C9451000C94510011241FBECFEFD8E026
:10007000DEBFCDBF11E0A0E0B1E0E4E1FAE002C0F4
:1000800005900D92AC33B107D9F721E0ACE3B1E0B4
:1000900001C01D92AA34B207E1F70E948C010C94B2
:1000A00008050C940000CF93E0914801F0914901BC
:1000B000C08190913F0121E030E0A90101C0440FCF
:1000C0009A95EAF790913E01D90101C0AA0F9A953D
:1000D000EAF790913D01B90101C0660F9A95EAF7E0
:1000E00090913C0101C0220F9A95EAF79A2F942B28
:1000F000962B922B90959C23908384FF03C0508174
:10010000542B508385FF03C040814A2B408386FFD8
:1001100003C09081962B908387FF03C08081282B9A
:100120002083CF910895E0914401F0914501208111
:100130003091400181E090E0AC0101C0440F3A955C
:10014000EAF7242B20832AE62A95F1F700C0E091F4
:100150004401F091450120813091400101C0880F98
:100160003A95EAF78095822380830895CF93C82F2C
:10017000E0914601F091470180819091410121E099
:1001800030E001C0220F9A95EAF7822B80838C2FF2
:100190000E9453000E9493008C2F8295807F0E94C2
:1001A00053000E94930085EF8A95F1F70000CF91EC
:1001B0000895CF93DF93EC018991882319F00E9471
:1001C000B600FACFDF91CF910895CF93C82FE09179
:1001D0004601F091470180819091410121E030E09A
:1001E00001C0220F9A95EAF72095282320838C2FAF
:1001F0000E9453000E9493008C2F8295807F0E9462
:1002000053000E94930080EE8A95F1F7CF910895F4
:1002100081E00E94E5008FE39FE10197F1F700C0C4
:10022000000008958F929F92AF92BF92DF92EF925B
:10023000FF920F931F93CF93DF93CDB7DEB7C654D2
:10024000D1090FB6F894DEBF0FBECDBF24966FAFB5
:10025000249725967FAF259726968FAF26972796CA
:100260009FAF2797D12CCE0182967C018AE0882E01
:10027000912CA12CB12C4D2D50E027968CAD9DAD2D
:10028000AEADBFAD2797892B8A2B8B2B71F49701CD
:10029000240F351FFE013196CF012E153F0519F1B0
:1002A000D9016E919D016193F8CF8701040F151F4D
:1002B00027966CAD7DAD8EAD9FAD2797A5019401BE
:1002C0000E944803605DD8016C9324962FAF249759
:1002D00025963FAF259726964FAF269727965FAF77
:1002E0002797D394C8CF480F591FFA0110820E9454
:1002F000D900CA5BDF4F0FB6F894DEBF0FBECDBF8B
:10030000DF91CF911F910F91FF90EF90DF90BF9001
:10031000AF909F908F900895CDB7DEB76C970FB6D2
:10032000F894DEBF0FBECDBF88E290E09093490104
:100330008093480185E290E09093470180934601C5
:10034000909345018093440184E290E090934301AF
:10035000809342011092410181E08093400182E04C
:1003600080933F0183E080933E0184E080933D01D0
:1003700085E080933C0187B18C6387B9E0914201AD
:10038000F091430180819091410121E030E0B90179
:1003900001C0660F9A95EAF7862B80838081909141
:1003A0004001A90101C0440F9A95EAF7842B80838C
:1003B000E0914801F0914901508180913F01D901BC
:1003C00002C0AA0FBB1F8A95E2F7CD0190913E01B2
:1003D000D90101C0AA0F9A95EAF78A2B90913D01A5
:1003E000D90101C0AA0F9A95EAF78A2B90913C0196
:1003F00001C0220F9A95EAF7822B8095852380838E
:10040000E0914601F0914701808160956823608307
:10041000E0914401F091450180814095482340835B
:10042000BFEF29EF80E0B15020408040E1F700C0ED
:10043000000080E30E945300AFE4B6E41197F1F7A7
:1004400000C0000080E30E9453008FE496E401970F
:10045000F1F700C0000080E30E945300A7E5B2E07E
:100460001197F1F700C0000080E20E94530088E27B
:100470000E94E5008FE00E94E50086E00E94E50012
:100480000E94080188E50E94B600BFEF27EA81E6D6
:10049000B15020408040E1F700C000000E940801F8
:1004A00060E071E08E010F5F1F4FC8010E940105DF
:1004B000C8010E94D9009FEFA7EAB1E69150A04081
:1004C000B040E1F700C000000E94080165E171E062
:1004D000C8010E940105C8010E94D90080EC0E9459
:1004E000E5008DE20E94B6006FEF7FE780E090E0CC
:1004F0000E9412012FEF87EA91E621508040904040
:10050000E1F700C000000E9408016CE071E0C80142
:100510000E940105C8010E94D90080EC0E94E500FC
:100520006FEF7FEF80E090E00E941201AFEFB7EA3B
:1005300021E6A150B0402040E1F700C000000E9439
:10054000080166E271E0C8010E940105C8010E942D
:10055000D90080EC0E94E5008DE20E94B6006FEFAA
:100560007FEF8FEF9FE70E9412018FEF97EAA1E6DE
:1005700081509040A040E1F700C000000E940801B7
:100580006DE171E0C8010E940105C8010E94D90017
:1005900080EC0E94E5006FEF7FEFCB010E9412011B
:1005A000BFEF27EA81E6B15020408040E1F700C06C
:1005B00000000E9408016BE271E0C8010E94010581
:1005C000C8010E94D90080EC0E94E50067EE7AE144
:1005D00085E090E00E9412018EE20E94B60084E065
:1005E000B82E60E070E080E09EE3BA94BB20C9F1D1
:1005F00020E030E040E251E4698F7A8F8B8F9C8F4E
:10060000698D7A8D8B8D9C8D0E949404762E872E19
:10061000982EA92E698F7A8F8B8F9C8F698D7A8DFA
:100620008B8D9C8D0E94D7036B0180E38C0D0E9403
:10063000B600C601B0E0A0E0898F9A8FAB8FBC8F67
:10064000B601CD010E9406049B01AC01798E8A8E11
:100650009B8EAC8E698D7A8D8B8D9C8D0E946A03EA
:10066000C4CF9FEFA7EAB1E69150A040B040E1F7B8
:1006700000C000000E94080162E371E0C8010E940E
:10068000010581EC0E94E500C8010E94D900FFCF5E
:10069000A1E21A2EAA1BBB1BFD010DC0AA1FBB1F86
:1006A000EE1FFF1FA217B307E407F50720F0A21BF8
:1006B000B30BE40BF50B661F771F881F991F1A9465
:1006C00069F760957095809590959B01AC01BD018F
:1006D000CF0108955058BB27AA270E9482030C948B
:1006E0005A040E944C0438F00E94530420F039F45C
:1006F0009F3F19F426F40C9449040EF4E095E7FBAF
:100700000C944304E92F0E946B0458F3BA17620754
:1007100073078407950720F079F4A6F50C948D04EF
:100720000EF4E0950B2EBA2FA02D0B01B90190010C
:100730000C01CA01A0011124FF27591B99F0593F50
:1007400050F4503E68F11A16F040A22F232F342F98
:100750004427585FF3CF469537952795A795F040E6
:100760005395C9F77EF41F16BA0B620B730B840BFB
:10077000BAF09150A1F0FF0FBB1F661F771F881FB3
:10078000C2F70EC0BA0F621F731F841F48F487950B
:1007900077956795B795F7959E3F08F0B0CF9395FD
:1007A000880F08F09927EE0F9795879508950E9476
:1007B000730488F09F5798F0B92F9927B751B0F07C
:1007C000E1F0660F771F881F991F1AF0BA95C9F7D5
:1007D00014C0B13091F00E948D04B1E008950C94E2
:1007E0008D04672F782F8827B85F39F0B93FCCF395
:1007F000869577956795B395D9F73EF49095809552
:10080000709561957F4F8F4F9F4F0895E89409C071
:1008100097FB3EF490958095709561957F4F8F4F33
:100820009F4F9923A9F0F92F96E9BB279395F69549
:10083000879577956795B795F111F8CFFAF4BB0FC7
:1008400011F460FF1BC06F5F7F4F8F4F9F4F16C02B
:10085000882311F096E911C0772321F09EE8872FB5
:10086000762F05C0662371F096E8862F70E060E071
:100870002AF09A95660F771F881FDAF7880F9695EA
:10088000879597F9089597F99F6780E870E060E091
:1008900008959FEF80EC089500240A941616170619
:1008A00018060906089500240A9412161306140661
:1008B00005060895092E0394000C11F4882352F0C4
:1008C000BB0F40F4BF2B11F460FF04C06F5F7F4F7C
:1008D0008F4F9F4F089557FD9058440F551F59F063
:1008E0005F3F71F04795880F97FB991F61F09F3F1D
:1008F00079F087950895121613061406551FF2CF46
:100900004695F1DF08C0161617061806991FF1CF95
:1009100086957105610508940895E894BB276627BC
:100920007727CB0197F908950E94A7040C945A04E5
:100930000E944C0438F00E94530420F0952311F0DB
:100940000C9443040C94490411240C948E040E94CA
:100950006B0470F3959FC1F3950F50E0551F629F94
:10096000F001729FBB27F00DB11D639FAA27F00D08
:10097000B11DAA1F649F6627B00DA11D661F829F2F
:100980002227B00DA11D621F739FB00DA11D621F14
:10099000839FA00D611D221F749F3327A00D611D31
:1009A000231F849F600D211D822F762F6A2F112413
:1009B0009F5750409AF0F1F088234AF0EE0FFF1F46
:1009C000BB1F661F771F881F91505040A9F79E3F9D
:1009D000510580F00C9443040C948E045F3FE4F3C3
:1009E000983ED4F3869577956795B795F795E795F3
:1009F0009F5FC1F7FE2B880F911D9695879597F9FC
:100A00000895FB01DC0101900D920020E1F70895AB
:040A1000F894FFCF88
:100A140048656C6C6F20776F726C6400756E7369D7
:100A2400676E656420496E746567657200756E73E0
:100A340069676E6564206C6F6E6700646F75626CC5
:0C0A4400650048616E6E6F766572000000
:00000001FF
